:100000000EC01EC01DC01CC01BC01AC019C018C025
:1000100017C016C015C014C039C012C011C01124B9
:100020001FBECFEDCDBF10E0A0E6B0E0EAE0F1E00A
:1000300002C005900D92A236B107D9F736D063C041
:10004000DFCF9C01982F97702830310509F490621A
:10005000906184B7877F84BF81B5886181BD91BD80
:1000600081B5806481BD089585B7877E806185BF35
:1000700085B7806285BF85B7806285BF889585B763
:100080008F7D85BF85B78F7D85BF08951F920F92A5
:100090000FB60F9211248F9381E0809360008F91AF
:1000A0000F900FBE0F901F90189583E08ABD82E0DD
:1000B00083BF789480E48CBD8FEF8DBD84EC80BFCE
:1000C00083E886B9379880E187BBC0E18091600002
:1000D0008823E1F31092600081E090E0B2DFC8BBBA
:1000E000C3DF18BA83E090E0ACDFBEDF81E090E0D0
:1000F000A8DFC8BBB9DF18BA88E090E0A2DF17BA62
:0A010000B3DFC7BBE3CFF894FFCFD5
:02010A000100F2
:00000001FF
